{
	"data": {
		"bytecode": {
			"linkReferences": {},
			"object": "608060405234801561001057600080fd5b506113ac806100206000396000f3fe608060405234801561001057600080fd5b506004361061004c5760003560e01c8063a1aeedbc14610051578063b43c5d3314610081578063bfbd505d146100b2578063d63dbdc8146100e2575b600080fd5b61006b60048036038101906100669190610a64565b610112565b6040516100789190610bad565b60405180910390f35b61009b60048036038101906100969190610c2d565b6103c6565b6040516100a9929190610cf9565b60405180910390f35b6100cc60048036038101906100c79190610f48565b610472565b6040516100d99190611047565b60405180910390f35b6100fc60048036038101906100f79190610f48565b6106af565b6040516101099190610bad565b60405180910390f35b60606040518060400160405280607b81526020016040518060400160405280600381526020017f62617200000000000000000000000000000000000000000000000000000000008152508152506000803373ffffffffffffffffffffffffffffffffffffffff1673ffffffffffffffffffffffffffffffffffffffff1681526020019081526020016000206000820151816000015560208201518160010190816101bc9190611275565b5090505060008060003373ffffffffffffffffffffffffffffffffffffffff1673ffffffffffffffffffffffffffffffffffffffff16815260200190815260200160002090506040518060400160405280600381526020017f666f6f00000000000000000000000000000000000000000000000000000000008152508160010190816102489190611275565b5060008060003373ffffffffffffffffffffffffffffffffffffffff1673ffffffffffffffffffffffffffffffffffffffff168152602001908152602001600020604051806040016040529081600082015481526020016001820180546102ae90611098565b80601f01602080910402602001604051908101604052809291908181526020018280546102da90611098565b80156103275780601f106102fc57610100808354040283529160200191610327565b820191906000526020600020905b81548152906001019060200180831161030a57829003601f168201915b50505050508152505090506101c88160000181815250506103488787610957565b6000600367ffffffffffffffff81111561036557610364610d29565b5b6040519080825280602002602001820160405280156103935781602001602082028036833780820191505090505b50905060ea816000815181106103ac576103ab611347565b5b602002602001018181525050809350505050949350505050565b60006020528060005260406000206000915090508060000154908060010180546103ef90611098565b80601f016020809104026020016040519081016040528092919081815260200182805461041b90611098565b80156104685780601f1061043d57610100808354040283529160200191610468565b820191906000526020600020905b81548152906001019060200180831161044b57829003601f168201915b5050505050905082565b61047a61097b565b6040518060400160405280607b81526020016040518060400160405280600381526020017f62617200000000000000000000000000000000000000000000000000000000008152508152506000803373ffffffffffffffffffffffffffffffffffffffff1673ffffffffffffffffffffffffffffffffffffffff1681526020019081526020016000206000820151816000015560208201518160010190816105229190611275565b5090505060008060003373ffffffffffffffffffffffffffffffffffffffff1673ffffffffffffffffffffffffffffffffffffffff16815260200190815260200160002090506040518060400160405280600381526020017f666f6f00000000000000000000000000000000000000000000000000000000008152508160010190816105ae9190611275565b5060008060003373ffffffffffffffffffffffffffffffffffffffff1673ffffffffffffffffffffffffffffffffffffffff1681526020019081526020016000206040518060400160405290816000820154815260200160018201805461061490611098565b80601f016020809104026020016040519081016040528092919081815260200182805461064090611098565b801561068d5780601f106106625761010080835404028352916020019161068d565b820191906000526020600020905b81548152906001019060200180831161067057829003601f168201915b50505050508152505090506101c8816000018181525050809250505092915050565b60606040518060400160405280607b81526020016040518060400160405280600381526020017f62617200000000000000000000000000000000000000000000000000000000008152508152506000803373ffffffffffffffffffffffffffffffffffffffff1673ffffffffffffffffffffffffffffffffffffffff1681526020019081526020016000206000820151816000015560208201518160010190816107599190611275565b5090505060008060003373ffffffffffffffffffffffffffffffffffffffff1673ffffffffffffffffffffffffffffffffffffffff16815260200190815260200160002090506040518060400160405280600381526020017f666f6f00000000000000000000000000000000000000000000000000000000008152508160010190816107e59190611275565b5060008060003373ffffffffffffffffffffffffffffffffffffffff1673ffffffffffffffffffffffffffffffffffffffff1681526020019081526020016000206040518060400160405290816000820154815260200160018201805461084b90611098565b80601f016020809104026020016040519081016040528092919081815260200182805461087790611098565b80156108c45780601f10610899576101008083540402835291602001916108c4565b820191906000526020600020905b8154815290600101906020018083116108a757829003601f168201915b50505050508152505090506101c88160000181815250506000600367ffffffffffffffff8111156108f8576108f7610d29565b5b6040519080825280602002602001820160405280156109265781602001602082028036833780820191505090505b50905060ea8160008151811061093f5761093e611347565b5b60200260200101818152505080935050505092915050565b60008282600081811061096d5761096c611347565b5b905060200201359050505050565b604051806040016040528060008152602001606081525090565b6000604051905090565b600080fd5b600080fd5b600080fd5b600080fd5b600080fd5b60008083601f8401126109ce576109cd6109a9565b5b8235905067ffffffffffffffff8111156109eb576109ea6109ae565b5b602083019150836020820283011115610a0757610a066109b3565b5b9250929050565b60008083601f840112610a2457610a236109a9565b5b8235905067ffffffffffffffff811115610a4157610a406109ae565b5b602083019150836001820283011115610a5d57610a5c6109b3565b5b9250929050565b60008060008060408587031215610a7e57610a7d61099f565b5b600085013567ffffffffffffffff811115610a9c57610a9b6109a4565b5b610aa8878288016109b8565b9450945050602085013567ffffffffffffffff811115610acb57610aca6109a4565b5b610ad787828801610a0e565b925092505092959194509250565b600081519050919050565b600082825260208201905092915050565b6000819050602082019050919050565b6000819050919050565b610b2481610b11565b82525050565b6000610b368383610b1b565b60208301905092915050565b6000602082019050919050565b6000610b5a82610ae5565b610b648185610af0565b9350610b6f83610b01565b8060005b83811015610ba0578151610b878882610b2a565b9750610b9283610b42565b925050600181019050610b73565b5085935050505092915050565b60006020820190508181036000830152610bc78184610b4f565b905092915050565b600073ffffffffffffffffffffffffffffffffffffffff82169050919050565b6000610bfa82610bcf565b9050919050565b610c0a81610bef565b8114610c1557600080fd5b50565b600081359050610c2781610c01565b92915050565b600060208284031215610c4357610c4261099f565b5b6000610c5184828501610c18565b91505092915050565b610c6381610b11565b82525050565b600081519050919050565b600082825260208201905092915050565b60005b83811015610ca3578082015181840152602081019050610c88565b60008484015250505050565b6000601f19601f8301169050919050565b6000610ccb82610c69565b610cd58185610c74565b9350610ce5818560208601610c85565b610cee81610caf565b840191505092915050565b6000604082019050610d0e6000830185610c5a565b8181036020830152610d208184610cc0565b90509392505050565b7f4e487b7100000000000000000000000000000000000000000000000000000000600052604160045260246000fd5b610d6182610caf565b810181811067ffffffffffffffff82111715610d8057610d7f610d29565b5b80604052505050565b6000610d93610995565b9050610d9f8282610d58565b919050565b600067ffffffffffffffff821115610dbf57610dbe610d29565b5b602082029050602081019050919050565b610dd981610b11565b8114610de457600080fd5b50565b600081359050610df681610dd0565b92915050565b6000610e0f610e0a84610da4565b610d89565b90508083825260208201905060208402830185811115610e3257610e316109b3565b5b835b81811015610e5b5780610e478882610de7565b845260208401935050602081019050610e34565b5050509392505050565b600082601f830112610e7a57610e796109a9565b5b8135610e8a848260208601610dfc565b91505092915050565b600080fd5b600067ffffffffffffffff821115610eb357610eb2610d29565b5b610ebc82610caf565b9050602081019050919050565b82818337600083830152505050565b6000610eeb610ee684610e98565b610d89565b905082815260208101848484011115610f0757610f06610e93565b5b610f12848285610ec9565b509392505050565b600082601f830112610f2f57610f2e6109a9565b5b8135610f3f848260208601610ed8565b91505092915050565b60008060408385031215610f5f57610f5e61099f565b5b600083013567ffffffffffffffff811115610f7d57610f7c6109a4565b5b610f8985828601610e65565b925050602083013567ffffffffffffffff811115610faa57610fa96109a4565b5b610fb685828601610f1a565b9150509250929050565b600082825260208201905092915050565b6000610fdc82610c69565b610fe68185610fc0565b9350610ff6818560208601610c85565b610fff81610caf565b840191505092915050565b60006040830160008301516110226000860182610b1b565b506020830151848203602086015261103a8282610fd1565b9150508091505092915050565b60006020820190508181036000830152611061818461100a565b905092915050565b7f4e487b7100000000000000000000000000000000000000000000000000000000600052602260045260246000fd5b600060028204905060018216806110b057607f821691505b6020821081036110c3576110c2611069565b5b50919050565b60008190508160005260206000209050919050565b60006020601f8301049050919050565b600082821b905092915050565b60006008830261112b7fffffffffffffffffffffffffffffffffffffffffffffffffffffffffffffffff826110ee565b61113586836110ee565b95508019841693508086168417925050509392505050565b6000819050919050565b600061117261116d61116884610b11565b61114d565b610b11565b9050919050565b6000819050919050565b61118c83611157565b6111a061119882611179565b8484546110fb565b825550505050565b600090565b6111b56111a8565b6111c0818484611183565b505050565b5b818110156111e4576111d96000826111ad565b6001810190506111c6565b5050565b601f821115611229576111fa816110c9565b611203846110de565b81016020851015611212578190505b61122661121e856110de565b8301826111c5565b50505b505050565b600082821c905092915050565b600061124c6000198460080261122e565b1980831691505092915050565b6000611265838361123b565b9150826002028217905092915050565b61127e82610c69565b67ffffffffffffffff81111561129757611296610d29565b5b6112a18254611098565b6112ac8282856111e8565b600060209050601f8311600181146112df57600084156112cd578287015190505b6112d78582611259565b86555061133f565b601f1984166112ed866110c9565b60005b82811015611315578489015182556001820191506020850194506020810190506112f0565b86831015611332578489015161132e601f89168261123b565b8355505b6001600288020188555050505b505050505050565b7f4e487b7100000000000000000000000000000000000000000000000000000000600052603260045260246000fdfea2646970667358221220cf2288af2bc78a30cb632d9aef9f4a2dfbd3d0f372cb6880d953e012f3e54c7f64736f6c63430008130033",
			"opcodes": "PUSH1 0x80 PUSH1 0x40 MSTORE CALLVALUE DUP1 ISZERO PUSH2 0x10 JUMPI PUSH1 0x0 DUP1 REVERT JUMPDEST POP PUSH2 0x13AC DUP1 PUSH2 0x20 PUSH1 0x0 CODECOPY PUSH1 0x0 RETURN INVALID PUSH1 0x80 PUSH1 0x40 MSTORE CALLVALUE DUP1 ISZERO PUSH2 0x10 JUMPI PUSH1 0x0 DUP1 REVERT JUMPDEST POP PUSH1 0x4 CALLDATASIZE LT PUSH2 0x4C JUMPI PUSH1 0x0 CALLDATALOAD PUSH1 0xE0 SHR DUP1 PUSH4 0xA1AEEDBC EQ PUSH2 0x51 JUMPI DUP1 PUSH4 0xB43C5D33 EQ PUSH2 0x81 JUMPI DUP1 PUSH4 0xBFBD505D EQ PUSH2 0xB2 JUMPI DUP1 PUSH4 0xD63DBDC8 EQ PUSH2 0xE2 JUMPI JUMPDEST PUSH1 0x0 DUP1 REVERT JUMPDEST PUSH2 0x6B PUSH1 0x4 DUP1 CALLDATASIZE SUB DUP2 ADD SWAP1 PUSH2 0x66 SWAP2 SWAP1 PUSH2 0xA64 JUMP JUMPDEST PUSH2 0x112 JUMP JUMPDEST PUSH1 0x40 MLOAD PUSH2 0x78 SWAP2 SWAP1 PUSH2 0xBAD JUMP JUMPDEST PUSH1 0x40 MLOAD DUP1 SWAP2 SUB SWAP1 RETURN JUMPDEST PUSH2 0x9B PUSH1 0x4 DUP1 CALLDATASIZE SUB DUP2 ADD SWAP1 PUSH2 0x96 SWAP2 SWAP1 PUSH2 0xC2D JUMP JUMPDEST PUSH2 0x3C6 JUMP JUMPDEST PUSH1 0x40 MLOAD PUSH2 0xA9 SWAP3 SWAP2 SWAP1 PUSH2 0xCF9 JUMP JUMPDEST PUSH1 0x40 MLOAD DUP1 SWAP2 SUB SWAP1 RETURN JUMPDEST PUSH2 0xCC PUSH1 0x4 DUP1 CALLDATASIZE SUB DUP2 ADD SWAP1 PUSH2 0xC7 SWAP2 SWAP1 PUSH2 0xF48 JUMP JUMPDEST PUSH2 0x472 JUMP JUMPDEST PUSH1 0x40 MLOAD PUSH2 0xD9 SWAP2 SWAP1 PUSH2 0x1047 JUMP JUMPDEST PUSH1 0x40 MLOAD DUP1 SWAP2 SUB SWAP1 RETURN JUMPDEST PUSH2 0xFC PUSH1 0x4 DUP1 CALLDATASIZE SUB DUP2 ADD SWAP1 PUSH2 0xF7 SWAP2 SWAP1 PUSH2 0xF48 JUMP JUMPDEST PUSH2 0x6AF JUMP JUMPDEST PUSH1 0x40 MLOAD PUSH2 0x109 SWAP2 SWAP1 PUSH2 0xBAD JUMP JUMPDEST PUSH1 0x40 MLOAD DUP1 SWAP2 SUB SWAP1 RETURN JUMPDEST PUSH1 0x60 PUSH1 0x40 MLOAD DUP1 PUSH1 0x40 ADD PUSH1 0x40 MSTORE DUP1 PUSH1 0x7B DUP2 MSTORE PUSH1 0x20 ADD PUSH1 0x40 MLOAD DUP1 PUSH1 0x40 ADD PUSH1 0x40 MSTORE DUP1 PUSH1 0x3 DUP2 MSTORE PUSH1 0x20 ADD PUSH32 0x6261720000000000000000000000000000000000000000000000000000000000 DUP2 MSTORE POP DUP2 MSTORE POP PUSH1 0x0 DUP1 CALLER PUSH20 0xFFFFFFFFFFFFFFFFFFFFFFFFFFFFFFFFFFFFFFFF AND PUSH20 0xFFFFFFFFFFFFFFFFFFFFFFFFFFFFFFFFFFFFFFFF AND DUP2 MSTORE PUSH1 0x20 ADD SWAP1 DUP2 MSTORE PUSH1 0x20 ADD PUSH1 0x0 KECCAK256 PUSH1 0x0 DUP3 ADD MLOAD DUP2 PUSH1 0x0 ADD SSTORE PUSH1 0x20 DUP3 ADD MLOAD DUP2 PUSH1 0x1 ADD SWAP1 DUP2 PUSH2 0x1BC SWAP2 SWAP1 PUSH2 0x1275 JUMP JUMPDEST POP SWAP1 POP POP PUSH1 0x0 DUP1 PUSH1 0x0 CALLER PUSH20 0xFFFFFFFFFFFFFFFFFFFFFFFFFFFFFFFFFFFFFFFF AND PUSH20 0xFFFFFFFFFFFFFFFFFFFFFFFFFFFFFFFFFFFFFFFF AND DUP2 MSTORE PUSH1 0x20 ADD SWAP1 DUP2 MSTORE PUSH1 0x20 ADD PUSH1 0x0 KECCAK256 SWAP1 POP PUSH1 0x40 MLOAD DUP1 PUSH1 0x40 ADD PUSH1 0x40 MSTORE DUP1 PUSH1 0x3 DUP2 MSTORE PUSH1 0x20 ADD PUSH32 0x666F6F0000000000000000000000000000000000000000000000000000000000 DUP2 MSTORE POP DUP2 PUSH1 0x1 ADD SWAP1 DUP2 PUSH2 0x248 SWAP2 SWAP1 PUSH2 0x1275 JUMP JUMPDEST POP PUSH1 0x0 DUP1 PUSH1 0x0 CALLER PUSH20 0xFFFFFFFFFFFFFFFFFFFFFFFFFFFFFFFFFFFFFFFF AND PUSH20 0xFFFFFFFFFFFFFFFFFFFFFFFFFFFFFFFFFFFFFFFF AND DUP2 MSTORE PUSH1 0x20 ADD SWAP1 DUP2 MSTORE PUSH1 0x20 ADD PUSH1 0x0 KECCAK256 PUSH1 0x40 MLOAD DUP1 PUSH1 0x40 ADD PUSH1 0x40 MSTORE SWAP1 DUP2 PUSH1 0x0 DUP3 ADD SLOAD DUP2 MSTORE PUSH1 0x20 ADD PUSH1 0x1 DUP3 ADD DUP1 SLOAD PUSH2 0x2AE SWAP1 PUSH2 0x1098 JUMP JUMPDEST DUP1 PUSH1 0x1F ADD PUSH1 0x20 DUP1 SWAP2 DIV MUL PUSH1 0x20 ADD PUSH1 0x40 MLOAD SWAP1 DUP2 ADD PUSH1 0x40 MSTORE DUP1 SWAP3 SWAP2 SWAP1 DUP2 DUP2 MSTORE PUSH1 0x20 ADD DUP3 DUP1 SLOAD PUSH2 0x2DA SWAP1 PUSH2 0x1098 JUMP JUMPDEST DUP1 ISZERO PUSH2 0x327 JUMPI DUP1 PUSH1 0x1F LT PUSH2 0x2FC JUMPI PUSH2 0x100 DUP1 DUP4 SLOAD DIV MUL DUP4 MSTORE SWAP2 PUSH1 0x20 ADD SWAP2 PUSH2 0x327 JUMP JUMPDEST DUP3 ADD SWAP2 SWAP1 PUSH1 0x0 MSTORE PUSH1 0x20 PUSH1 0x0 KECCAK256 SWAP1 JUMPDEST DUP2 SLOAD DUP2 MSTORE SWAP1 PUSH1 0x1 ADD SWAP1 PUSH1 0x20 ADD DUP1 DUP4 GT PUSH2 0x30A JUMPI DUP3 SWAP1 SUB PUSH1 0x1F AND DUP3 ADD SWAP2 JUMPDEST POP POP POP POP POP DUP2 MSTORE POP POP SWAP1 POP PUSH2 0x1C8 DUP2 PUSH1 0x0 ADD DUP2 DUP2 MSTORE POP POP PUSH2 0x348 DUP8 DUP8 PUSH2 0x957 JUMP JUMPDEST PUSH1 0x0 PUSH1 0x3 PUSH8 0xFFFFFFFFFFFFFFFF DUP2 GT ISZERO PUSH2 0x365 JUMPI PUSH2 0x364 PUSH2 0xD29 JUMP JUMPDEST JUMPDEST PUSH1 0x40 MLOAD SWAP1 DUP1 DUP3 MSTORE DUP1 PUSH1 0x20 MUL PUSH1 0x20 ADD DUP3 ADD PUSH1 0x40 MSTORE DUP1 ISZERO PUSH2 0x393 JUMPI DUP2 PUSH1 0x20 ADD PUSH1 0x20 DUP3 MUL DUP1 CALLDATASIZE DUP4 CALLDATACOPY DUP1 DUP3 ADD SWAP2 POP POP SWAP1 POP JUMPDEST POP SWAP1 POP PUSH1 0xEA DUP2 PUSH1 0x0 DUP2 MLOAD DUP2 LT PUSH2 0x3AC JUMPI PUSH2 0x3AB PUSH2 0x1347 JUMP JUMPDEST JUMPDEST PUSH1 0x20 MUL PUSH1 0x20 ADD ADD DUP2 DUP2 MSTORE POP POP DUP1 SWAP4 POP POP POP POP SWAP5 SWAP4 POP POP POP POP JUMP JUMPDEST PUSH1 0x0 PUSH1 0x20 MSTORE DUP1 PUSH1 0x0 MSTORE PUSH1 0x40 PUSH1 0x0 KECCAK256 PUSH1 0x0 SWAP2 POP SWAP1 POP DUP1 PUSH1 0x0 ADD SLOAD SWAP1 DUP1 PUSH1 0x1 ADD DUP1 SLOAD PUSH2 0x3EF SWAP1 PUSH2 0x1098 JUMP JUMPDEST DUP1 PUSH1 0x1F ADD PUSH1 0x20 DUP1 SWAP2 DIV MUL PUSH1 0x20 ADD PUSH1 0x40 MLOAD SWAP1 DUP2 ADD PUSH1 0x40 MSTORE DUP1 SWAP3 SWAP2 SWAP1 DUP2 DUP2 MSTORE PUSH1 0x20 ADD DUP3 DUP1 SLOAD PUSH2 0x41B SWAP1 PUSH2 0x1098 JUMP JUMPDEST DUP1 ISZERO PUSH2 0x468 JUMPI DUP1 PUSH1 0x1F LT PUSH2 0x43D JUMPI PUSH2 0x100 DUP1 DUP4 SLOAD DIV MUL DUP4 MSTORE SWAP2 PUSH1 0x20 ADD SWAP2 PUSH2 0x468 JUMP JUMPDEST DUP3 ADD SWAP2 SWAP1 PUSH1 0x0 MSTORE PUSH1 0x20 PUSH1 0x0 KECCAK256 SWAP1 JUMPDEST DUP2 SLOAD DUP2 MSTORE SWAP1 PUSH1 0x1 ADD SWAP1 PUSH1 0x20 ADD DUP1 DUP4 GT PUSH2 0x44B JUMPI DUP3 SWAP1 SUB PUSH1 0x1F AND DUP3 ADD SWAP2 JUMPDEST POP POP POP POP POP SWAP1 POP DUP3 JUMP JUMPDEST PUSH2 0x47A PUSH2 0x97B JUMP JUMPDEST PUSH1 0x40 MLOAD DUP1 PUSH1 0x40 ADD PUSH1 0x40 MSTORE DUP1 PUSH1 0x7B DUP2 MSTORE PUSH1 0x20 ADD PUSH1 0x40 MLOAD DUP1 PUSH1 0x40 ADD PUSH1 0x40 MSTORE DUP1 PUSH1 0x3 DUP2 MSTORE PUSH1 0x20 ADD PUSH32 0x6261720000000000000000000000000000000000000000000000000000000000 DUP2 MSTORE POP DUP2 MSTORE POP PUSH1 0x0 DUP1 CALLER PUSH20 0xFFFFFFFFFFFFFFFFFFFFFFFFFFFFFFFFFFFFFFFF AND PUSH20 0xFFFFFFFFFFFFFFFFFFFFFFFFFFFFFFFFFFFFFFFF AND DUP2 MSTORE PUSH1 0x20 ADD SWAP1 DUP2 MSTORE PUSH1 0x20 ADD PUSH1 0x0 KECCAK256 PUSH1 0x0 DUP3 ADD MLOAD DUP2 PUSH1 0x0 ADD SSTORE PUSH1 0x20 DUP3 ADD MLOAD DUP2 PUSH1 0x1 ADD SWAP1 DUP2 PUSH2 0x522 SWAP2 SWAP1 PUSH2 0x1275 JUMP JUMPDEST POP SWAP1 POP POP PUSH1 0x0 DUP1 PUSH1 0x0 CALLER PUSH20 0xFFFFFFFFFFFFFFFFFFFFFFFFFFFFFFFFFFFFFFFF AND PUSH20 0xFFFFFFFFFFFFFFFFFFFFFFFFFFFFFFFFFFFFFFFF AND DUP2 MSTORE PUSH1 0x20 ADD SWAP1 DUP2 MSTORE PUSH1 0x20 ADD PUSH1 0x0 KECCAK256 SWAP1 POP PUSH1 0x40 MLOAD DUP1 PUSH1 0x40 ADD PUSH1 0x40 MSTORE DUP1 PUSH1 0x3 DUP2 MSTORE PUSH1 0x20 ADD PUSH32 0x666F6F0000000000000000000000000000000000000000000000000000000000 DUP2 MSTORE POP DUP2 PUSH1 0x1 ADD SWAP1 DUP2 PUSH2 0x5AE SWAP2 SWAP1 PUSH2 0x1275 JUMP JUMPDEST POP PUSH1 0x0 DUP1 PUSH1 0x0 CALLER PUSH20 0xFFFFFFFFFFFFFFFFFFFFFFFFFFFFFFFFFFFFFFFF AND PUSH20 0xFFFFFFFFFFFFFFFFFFFFFFFFFFFFFFFFFFFFFFFF AND DUP2 MSTORE PUSH1 0x20 ADD SWAP1 DUP2 MSTORE PUSH1 0x20 ADD PUSH1 0x0 KECCAK256 PUSH1 0x40 MLOAD DUP1 PUSH1 0x40 ADD PUSH1 0x40 MSTORE SWAP1 DUP2 PUSH1 0x0 DUP3 ADD SLOAD DUP2 MSTORE PUSH1 0x20 ADD PUSH1 0x1 DUP3 ADD DUP1 SLOAD PUSH2 0x614 SWAP1 PUSH2 0x1098 JUMP JUMPDEST DUP1 PUSH1 0x1F ADD PUSH1 0x20 DUP1 SWAP2 DIV MUL PUSH1 0x20 ADD PUSH1 0x40 MLOAD SWAP1 DUP2 ADD PUSH1 0x40 MSTORE DUP1 SWAP3 SWAP2 SWAP1 DUP2 DUP2 MSTORE PUSH1 0x20 ADD DUP3 DUP1 SLOAD PUSH2 0x640 SWAP1 PUSH2 0x1098 JUMP JUMPDEST DUP1 ISZERO PUSH2 0x68D JUMPI DUP1 PUSH1 0x1F LT PUSH2 0x662 JUMPI PUSH2 0x100 DUP1 DUP4 SLOAD DIV MUL DUP4 MSTORE SWAP2 PUSH1 0x20 ADD SWAP2 PUSH2 0x68D JUMP JUMPDEST DUP3 ADD SWAP2 SWAP1 PUSH1 0x0 MSTORE PUSH1 0x20 PUSH1 0x0 KECCAK256 SWAP1 JUMPDEST DUP2 SLOAD DUP2 MSTORE SWAP1 PUSH1 0x1 ADD SWAP1 PUSH1 0x20 ADD DUP1 DUP4 GT PUSH2 0x670 JUMPI DUP3 SWAP1 SUB PUSH1 0x1F AND DUP3 ADD SWAP2 JUMPDEST POP POP POP POP POP DUP2 MSTORE POP POP SWAP1 POP PUSH2 0x1C8 DUP2 PUSH1 0x0 ADD DUP2 DUP2 MSTORE POP POP DUP1 SWAP3 POP POP POP SWAP3 SWAP2 POP POP JUMP JUMPDEST PUSH1 0x60 PUSH1 0x40 MLOAD DUP1 PUSH1 0x40 ADD PUSH1 0x40 MSTORE DUP1 PUSH1 0x7B DUP2 MSTORE PUSH1 0x20 ADD PUSH1 0x40 MLOAD DUP1 PUSH1 0x40 ADD PUSH1 0x40 MSTORE DUP1 PUSH1 0x3 DUP2 MSTORE PUSH1 0x20 ADD PUSH32 0x6261720000000000000000000000000000000000000000000000000000000000 DUP2 MSTORE POP DUP2 MSTORE POP PUSH1 0x0 DUP1 CALLER PUSH20 0xFFFFFFFFFFFFFFFFFFFFFFFFFFFFFFFFFFFFFFFF AND PUSH20 0xFFFFFFFFFFFFFFFFFFFFFFFFFFFFFFFFFFFFFFFF AND DUP2 MSTORE PUSH1 0x20 ADD SWAP1 DUP2 MSTORE PUSH1 0x20 ADD PUSH1 0x0 KECCAK256 PUSH1 0x0 DUP3 ADD MLOAD DUP2 PUSH1 0x0 ADD SSTORE PUSH1 0x20 DUP3 ADD MLOAD DUP2 PUSH1 0x1 ADD SWAP1 DUP2 PUSH2 0x759 SWAP2 SWAP1 PUSH2 0x1275 JUMP JUMPDEST POP SWAP1 POP POP PUSH1 0x0 DUP1 PUSH1 0x0 CALLER PUSH20 0xFFFFFFFFFFFFFFFFFFFFFFFFFFFFFFFFFFFFFFFF AND PUSH20 0xFFFFFFFFFFFFFFFFFFFFFFFFFFFFFFFFFFFFFFFF AND DUP2 MSTORE PUSH1 0x20 ADD SWAP1 DUP2 MSTORE PUSH1 0x20 ADD PUSH1 0x0 KECCAK256 SWAP1 POP PUSH1 0x40 MLOAD DUP1 PUSH1 0x40 ADD PUSH1 0x40 MSTORE DUP1 PUSH1 0x3 DUP2 MSTORE PUSH1 0x20 ADD PUSH32 0x666F6F0000000000000000000000000000000000000000000000000000000000 DUP2 MSTORE POP DUP2 PUSH1 0x1 ADD SWAP1 DUP2 PUSH2 0x7E5 SWAP2 SWAP1 PUSH2 0x1275 JUMP JUMPDEST POP PUSH1 0x0 DUP1 PUSH1 0x0 CALLER PUSH20 0xFFFFFFFFFFFFFFFFFFFFFFFFFFFFFFFFFFFFFFFF AND PUSH20 0xFFFFFFFFFFFFFFFFFFFFFFFFFFFFFFFFFFFFFFFF AND DUP2 MSTORE PUSH1 0x20 ADD SWAP1 DUP2 MSTORE PUSH1 0x20 ADD PUSH1 0x0 KECCAK256 PUSH1 0x40 MLOAD DUP1 PUSH1 0x40 ADD PUSH1 0x40 MSTORE SWAP1 DUP2 PUSH1 0x0 DUP3 ADD SLOAD DUP2 MSTORE PUSH1 0x20 ADD PUSH1 0x1 DUP3 ADD DUP1 SLOAD PUSH2 0x84B SWAP1 PUSH2 0x1098 JUMP JUMPDEST DUP1 PUSH1 0x1F ADD PUSH1 0x20 DUP1 SWAP2 DIV MUL PUSH1 0x20 ADD PUSH1 0x40 MLOAD SWAP1 DUP2 ADD PUSH1 0x40 MSTORE DUP1 SWAP3 SWAP2 SWAP1 DUP2 DUP2 MSTORE PUSH1 0x20 ADD DUP3 DUP1 SLOAD PUSH2 0x877 SWAP1 PUSH2 0x1098 JUMP JUMPDEST DUP1 ISZERO PUSH2 0x8C4 JUMPI DUP1 PUSH1 0x1F LT PUSH2 0x899 JUMPI PUSH2 0x100 DUP1 DUP4 SLOAD DIV MUL DUP4 MSTORE SWAP2 PUSH1 0x20 ADD SWAP2 PUSH2 0x8C4 JUMP JUMPDEST DUP3 ADD SWAP2 SWAP1 PUSH1 0x0 MSTORE PUSH1 0x20 PUSH1 0x0 KECCAK256 SWAP1 JUMPDEST DUP2 SLOAD DUP2 MSTORE SWAP1 PUSH1 0x1 ADD SWAP1 PUSH1 0x20 ADD DUP1 DUP4 GT PUSH2 0x8A7 JUMPI DUP3 SWAP1 SUB PUSH1 0x1F AND DUP3 ADD SWAP2 JUMPDEST POP POP POP POP POP DUP2 MSTORE POP POP SWAP1 POP PUSH2 0x1C8 DUP2 PUSH1 0x0 ADD DUP2 DUP2 MSTORE POP POP PUSH1 0x0 PUSH1 0x3 PUSH8 0xFFFFFFFFFFFFFFFF DUP2 GT ISZERO PUSH2 0x8F8 JUMPI PUSH2 0x8F7 PUSH2 0xD29 JUMP JUMPDEST JUMPDEST PUSH1 0x40 MLOAD SWAP1 DUP1 DUP3 MSTORE DUP1 PUSH1 0x20 MUL PUSH1 0x20 ADD DUP3 ADD PUSH1 0x40 MSTORE DUP1 ISZERO PUSH2 0x926 JUMPI DUP2 PUSH1 0x20 ADD PUSH1 0x20 DUP3 MUL DUP1 CALLDATASIZE DUP4 CALLDATACOPY DUP1 DUP3 ADD SWAP2 POP POP SWAP1 POP JUMPDEST POP SWAP1 POP PUSH1 0xEA DUP2 PUSH1 0x0 DUP2 MLOAD DUP2 LT PUSH2 0x93F JUMPI PUSH2 0x93E PUSH2 0x1347 JUMP JUMPDEST JUMPDEST PUSH1 0x20 MUL PUSH1 0x20 ADD ADD DUP2 DUP2 MSTORE POP POP DUP1 SWAP4 POP POP POP POP SWAP3 SWAP2 POP POP JUMP JUMPDEST PUSH1 0x0 DUP3 DUP3 PUSH1 0x0 DUP2 DUP2 LT PUSH2 0x96D JUMPI PUSH2 0x96C PUSH2 0x1347 JUMP JUMPDEST JUMPDEST SWAP1 POP PUSH1 0x20 MUL ADD CALLDATALOAD SWAP1 POP POP POP POP JUMP JUMPDEST PUSH1 0x40 MLOAD DUP1 PUSH1 0x40 ADD PUSH1 0x40 MSTORE DUP1 PUSH1 0x0 DUP2 MSTORE PUSH1 0x20 ADD PUSH1 0x60 DUP2 MSTORE POP SWAP1 JUMP JUMPDEST PUSH1 0x0 PUSH1 0x40 MLOAD SWAP1 POP SWAP1 JUMP JUMPDEST PUSH1 0x0 DUP1 REVERT JUMPDEST PUSH1 0x0 DUP1 REVERT JUMPDEST PUSH1 0x0 DUP1 REVERT JUMPDEST PUSH1 0x0 DUP1 REVERT JUMPDEST PUSH1 0x0 DUP1 REVERT JUMPDEST PUSH1 0x0 DUP1 DUP4 PUSH1 0x1F DUP5 ADD SLT PUSH2 0x9CE JUMPI PUSH2 0x9CD PUSH2 0x9A9 JUMP JUMPDEST JUMPDEST DUP3 CALLDATALOAD SWAP1 POP PUSH8 0xFFFFFFFFFFFFFFFF DUP2 GT ISZERO PUSH2 0x9EB JUMPI PUSH2 0x9EA PUSH2 0x9AE JUMP JUMPDEST JUMPDEST PUSH1 0x20 DUP4 ADD SWAP2 POP DUP4 PUSH1 0x20 DUP3 MUL DUP4 ADD GT ISZERO PUSH2 0xA07 JUMPI PUSH2 0xA06 PUSH2 0x9B3 JUMP JUMPDEST JUMPDEST SWAP3 POP SWAP3 SWAP1 POP JUMP JUMPDEST PUSH1 0x0 DUP1 DUP4 PUSH1 0x1F DUP5 ADD SLT PUSH2 0xA24 JUMPI PUSH2 0xA23 PUSH2 0x9A9 JUMP JUMPDEST JUMPDEST DUP3 CALLDATALOAD SWAP1 POP PUSH8 0xFFFFFFFFFFFFFFFF DUP2 GT ISZERO PUSH2 0xA41 JUMPI PUSH2 0xA40 PUSH2 0x9AE JUMP JUMPDEST JUMPDEST PUSH1 0x20 DUP4 ADD SWAP2 POP DUP4 PUSH1 0x1 DUP3 MUL DUP4 ADD GT ISZERO PUSH2 0xA5D JUMPI PUSH2 0xA5C PUSH2 0x9B3 JUMP JUMPDEST JUMPDEST SWAP3 POP SWAP3 SWAP1 POP JUMP JUMPDEST PUSH1 0x0 DUP1 PUSH1 0x0 DUP1 PUSH1 0x40 DUP6 DUP8 SUB SLT ISZERO PUSH2 0xA7E JUMPI PUSH2 0xA7D PUSH2 0x99F JUMP JUMPDEST JUMPDEST PUSH1 0x0 DUP6 ADD CALLDATALOAD PUSH8 0xFFFFFFFFFFFFFFFF DUP2 GT ISZERO PUSH2 0xA9C JUMPI PUSH2 0xA9B PUSH2 0x9A4 JUMP JUMPDEST JUMPDEST PUSH2 0xAA8 DUP8 DUP3 DUP9 ADD PUSH2 0x9B8 JUMP JUMPDEST SWAP5 POP SWAP5 POP POP PUSH1 0x20 DUP6 ADD CALLDATALOAD PUSH8 0xFFFFFFFFFFFFFFFF DUP2 GT ISZERO PUSH2 0xACB JUMPI PUSH2 0xACA PUSH2 0x9A4 JUMP JUMPDEST JUMPDEST PUSH2 0xAD7 DUP8 DUP3 DUP9 ADD PUSH2 0xA0E JUMP JUMPDEST SWAP3 POP SWAP3 POP POP SWAP3 SWAP6 SWAP2 SWAP5 POP SWAP3 POP JUMP JUMPDEST PUSH1 0x0 DUP2 MLOAD SWAP1 POP SWAP2 SWAP1 POP JUMP JUMPDEST PUSH1 0x0 DUP3 DUP3 MSTORE PUSH1 0x20 DUP3 ADD SWAP1 POP SWAP3 SWAP2 POP POP JUMP JUMPDEST PUSH1 0x0 DUP2 SWAP1 POP PUSH1 0x20 DUP3 ADD SWAP1 POP SWAP2 SWAP1 POP JUMP JUMPDEST PUSH1 0x0 DUP2 SWAP1 POP SWAP2 SWAP1 POP JUMP JUMPDEST PUSH2 0xB24 DUP2 PUSH2 0xB11 JUMP JUMPDEST DUP3 MSTORE POP POP JUMP JUMPDEST PUSH1 0x0 PUSH2 0xB36 DUP4 DUP4 PUSH2 0xB1B JUMP JUMPDEST PUSH1 0x20 DUP4 ADD SWAP1 POP SWAP3 SWAP2 POP POP JUMP JUMPDEST PUSH1 0x0 PUSH1 0x20 DUP3 ADD SWAP1 POP SWAP2 SWAP1 POP JUMP JUMPDEST PUSH1 0x0 PUSH2 0xB5A DUP3 PUSH2 0xAE5 JUMP JUMPDEST PUSH2 0xB64 DUP2 DUP6 PUSH2 0xAF0 JUMP JUMPDEST SWAP4 POP PUSH2 0xB6F DUP4 PUSH2 0xB01 JUMP JUMPDEST DUP1 PUSH1 0x0 JUMPDEST DUP4 DUP2 LT ISZERO PUSH2 0xBA0 JUMPI DUP2 MLOAD PUSH2 0xB87 DUP9 DUP3 PUSH2 0xB2A JUMP JUMPDEST SWAP8 POP PUSH2 0xB92 DUP4 PUSH2 0xB42 JUMP JUMPDEST SWAP3 POP POP PUSH1 0x1 DUP2 ADD SWAP1 POP PUSH2 0xB73 JUMP JUMPDEST POP DUP6 SWAP4 POP POP POP POP SWAP3 SWAP2 POP POP JUMP JUMPDEST PUSH1 0x0 PUSH1 0x20 DUP3 ADD SWAP1 POP DUP2 DUP2 SUB PUSH1 0x0 DUP4 ADD MSTORE PUSH2 0xBC7 DUP2 DUP5 PUSH2 0xB4F JUMP JUMPDEST SWAP1 POP SWAP3 SWAP2 POP POP JUMP JUMPDEST PUSH1 0x0 PUSH20 0xFFFFFFFFFFFFFFFFFFFFFFFFFFFFFFFFFFFFFFFF DUP3 AND SWAP1 POP SWAP2 SWAP1 POP JUMP JUMPDEST PUSH1 0x0 PUSH2 0xBFA DUP3 PUSH2 0xBCF JUMP JUMPDEST SWAP1 POP SWAP2 SWAP1 POP JUMP JUMPDEST PUSH2 0xC0A DUP2 PUSH2 0xBEF JUMP JUMPDEST DUP2 EQ PUSH2 0xC15 JUMPI PUSH1 0x0 DUP1 REVERT JUMPDEST POP JUMP JUMPDEST PUSH1 0x0 DUP2 CALLDATALOAD SWAP1 POP PUSH2 0xC27 DUP2 PUSH2 0xC01 JUMP JUMPDEST SWAP3 SWAP2 POP POP JUMP JUMPDEST PUSH1 0x0 PUSH1 0x20 DUP3 DUP5 SUB SLT ISZERO PUSH2 0xC43 JUMPI PUSH2 0xC42 PUSH2 0x99F JUMP JUMPDEST JUMPDEST PUSH1 0x0 PUSH2 0xC51 DUP5 DUP3 DUP6 ADD PUSH2 0xC18 JUMP JUMPDEST SWAP2 POP POP SWAP3 SWAP2 POP POP JUMP JUMPDEST PUSH2 0xC63 DUP2 PUSH2 0xB11 JUMP JUMPDEST DUP3 MSTORE POP POP JUMP JUMPDEST PUSH1 0x0 DUP2 MLOAD SWAP1 POP SWAP2 SWAP1 POP JUMP JUMPDEST PUSH1 0x0 DUP3 DUP3 MSTORE PUSH1 0x20 DUP3 ADD SWAP1 POP SWAP3 SWAP2 POP POP JUMP JUMPDEST PUSH1 0x0 JUMPDEST DUP4 DUP2 LT ISZERO PUSH2 0xCA3 JUMPI DUP1 DUP3 ADD MLOAD DUP2 DUP5 ADD MSTORE PUSH1 0x20 DUP2 ADD SWAP1 POP PUSH2 0xC88 JUMP JUMPDEST PUSH1 0x0 DUP5 DUP5 ADD MSTORE POP POP POP POP JUMP JUMPDEST PUSH1 0x0 PUSH1 0x1F NOT PUSH1 0x1F DUP4 ADD AND SWAP1 POP SWAP2 SWAP1 POP JUMP JUMPDEST PUSH1 0x0 PUSH2 0xCCB DUP3 PUSH2 0xC69 JUMP JUMPDEST PUSH2 0xCD5 DUP2 DUP6 PUSH2 0xC74 JUMP JUMPDEST SWAP4 POP PUSH2 0xCE5 DUP2 DUP6 PUSH1 0x20 DUP7 ADD PUSH2 0xC85 JUMP JUMPDEST PUSH2 0xCEE DUP2 PUSH2 0xCAF JUMP JUMPDEST DUP5 ADD SWAP2 POP POP SWAP3 SWAP2 POP POP JUMP JUMPDEST PUSH1 0x0 PUSH1 0x40 DUP3 ADD SWAP1 POP PUSH2 0xD0E PUSH1 0x0 DUP4 ADD DUP6 PUSH2 0xC5A JUMP JUMPDEST DUP2 DUP2 SUB PUSH1 0x20 DUP4 ADD MSTORE PUSH2 0xD20 DUP2 DUP5 PUSH2 0xCC0 JUMP JUMPDEST SWAP1 POP SWAP4 SWAP3 POP POP POP JUMP JUMPDEST PUSH32 0x4E487B7100000000000000000000000000000000000000000000000000000000 PUSH1 0x0 MSTORE PUSH1 0x41 PUSH1 0x4 MSTORE PUSH1 0x24 PUSH1 0x0 REVERT JUMPDEST PUSH2 0xD61 DUP3 PUSH2 0xCAF JUMP JUMPDEST DUP2 ADD DUP2 DUP2 LT PUSH8 0xFFFFFFFFFFFFFFFF DUP3 GT OR ISZERO PUSH2 0xD80 JUMPI PUSH2 0xD7F PUSH2 0xD29 JUMP JUMPDEST JUMPDEST DUP1 PUSH1 0x40 MSTORE POP POP POP JUMP JUMPDEST PUSH1 0x0 PUSH2 0xD93 PUSH2 0x995 JUMP JUMPDEST SWAP1 POP PUSH2 0xD9F DUP3 DUP3 PUSH2 0xD58 JUMP JUMPDEST SWAP2 SWAP1 POP JUMP JUMPDEST PUSH1 0x0 PUSH8 0xFFFFFFFFFFFFFFFF DUP3 GT ISZERO PUSH2 0xDBF JUMPI PUSH2 0xDBE PUSH2 0xD29 JUMP JUMPDEST JUMPDEST PUSH1 0x20 DUP3 MUL SWAP1 POP PUSH1 0x20 DUP2 ADD SWAP1 POP SWAP2 SWAP1 POP JUMP JUMPDEST PUSH2 0xDD9 DUP2 PUSH2 0xB11 JUMP JUMPDEST DUP2 EQ PUSH2 0xDE4 JUMPI PUSH1 0x0 DUP1 REVERT JUMPDEST POP JUMP JUMPDEST PUSH1 0x0 DUP2 CALLDATALOAD SWAP1 POP PUSH2 0xDF6 DUP2 PUSH2 0xDD0 JUMP JUMPDEST SWAP3 SWAP2 POP POP JUMP JUMPDEST PUSH1 0x0 PUSH2 0xE0F PUSH2 0xE0A DUP5 PUSH2 0xDA4 JUMP JUMPDEST PUSH2 0xD89 JUMP JUMPDEST SWAP1 POP DUP1 DUP4 DUP3 MSTORE PUSH1 0x20 DUP3 ADD SWAP1 POP PUSH1 0x20 DUP5 MUL DUP4 ADD DUP6 DUP2 GT ISZERO PUSH2 0xE32 JUMPI PUSH2 0xE31 PUSH2 0x9B3 JUMP JUMPDEST JUMPDEST DUP4 JUMPDEST DUP2 DUP2 LT ISZERO PUSH2 0xE5B JUMPI DUP1 PUSH2 0xE47 DUP9 DUP3 PUSH2 0xDE7 JUMP JUMPDEST DUP5 MSTORE PUSH1 0x20 DUP5 ADD SWAP4 POP POP PUSH1 0x20 DUP2 ADD SWAP1 POP PUSH2 0xE34 JUMP JUMPDEST POP POP POP SWAP4 SWAP3 POP POP POP JUMP JUMPDEST PUSH1 0x0 DUP3 PUSH1 0x1F DUP4 ADD SLT PUSH2 0xE7A JUMPI PUSH2 0xE79 PUSH2 0x9A9 JUMP JUMPDEST JUMPDEST DUP2 CALLDATALOAD PUSH2 0xE8A DUP5 DUP3 PUSH1 0x20 DUP7 ADD PUSH2 0xDFC JUMP JUMPDEST SWAP2 POP POP SWAP3 SWAP2 POP POP JUMP JUMPDEST PUSH1 0x0 DUP1 REVERT JUMPDEST PUSH1 0x0 PUSH8 0xFFFFFFFFFFFFFFFF DUP3 GT ISZERO PUSH2 0xEB3 JUMPI PUSH2 0xEB2 PUSH2 0xD29 JUMP JUMPDEST JUMPDEST PUSH2 0xEBC DUP3 PUSH2 0xCAF JUMP JUMPDEST SWAP1 POP PUSH1 0x20 DUP2 ADD SWAP1 POP SWAP2 SWAP1 POP JUMP JUMPDEST DUP3 DUP2 DUP4 CALLDATACOPY PUSH1 0x0 DUP4 DUP4 ADD MSTORE POP POP POP JUMP JUMPDEST PUSH1 0x0 PUSH2 0xEEB PUSH2 0xEE6 DUP5 PUSH2 0xE98 JUMP JUMPDEST PUSH2 0xD89 JUMP JUMPDEST SWAP1 POP DUP3 DUP2 MSTORE PUSH1 0x20 DUP2 ADD DUP5 DUP5 DUP5 ADD GT ISZERO PUSH2 0xF07 JUMPI PUSH2 0xF06 PUSH2 0xE93 JUMP JUMPDEST JUMPDEST PUSH2 0xF12 DUP5 DUP3 DUP6 PUSH2 0xEC9 JUMP JUMPDEST POP SWAP4 SWAP3 POP POP POP JUMP JUMPDEST PUSH1 0x0 DUP3 PUSH1 0x1F DUP4 ADD SLT PUSH2 0xF2F JUMPI PUSH2 0xF2E PUSH2 0x9A9 JUMP JUMPDEST JUMPDEST DUP2 CALLDATALOAD PUSH2 0xF3F DUP5 DUP3 PUSH1 0x20 DUP7 ADD PUSH2 0xED8 JUMP JUMPDEST SWAP2 POP POP SWAP3 SWAP2 POP POP JUMP JUMPDEST PUSH1 0x0 DUP1 PUSH1 0x40 DUP4 DUP6 SUB SLT ISZERO PUSH2 0xF5F JUMPI PUSH2 0xF5E PUSH2 0x99F JUMP JUMPDEST JUMPDEST PUSH1 0x0 DUP4 ADD CALLDATALOAD PUSH8 0xFFFFFFFFFFFFFFFF DUP2 GT ISZERO PUSH2 0xF7D JUMPI PUSH2 0xF7C PUSH2 0x9A4 JUMP JUMPDEST JUMPDEST PUSH2 0xF89 DUP6 DUP3 DUP7 ADD PUSH2 0xE65 JUMP JUMPDEST SWAP3 POP POP PUSH1 0x20 DUP4 ADD CALLDATALOAD PUSH8 0xFFFFFFFFFFFFFFFF DUP2 GT ISZERO PUSH2 0xFAA JUMPI PUSH2 0xFA9 PUSH2 0x9A4 JUMP JUMPDEST JUMPDEST PUSH2 0xFB6 DUP6 DUP3 DUP7 ADD PUSH2 0xF1A JUMP JUMPDEST SWAP2 POP POP SWAP3 POP SWAP3 SWAP1 POP JUMP JUMPDEST PUSH1 0x0 DUP3 DUP3 MSTORE PUSH1 0x20 DUP3 ADD SWAP1 POP SWAP3 SWAP2 POP POP JUMP JUMPDEST PUSH1 0x0 PUSH2 0xFDC DUP3 PUSH2 0xC69 JUMP JUMPDEST PUSH2 0xFE6 DUP2 DUP6 PUSH2 0xFC0 JUMP JUMPDEST SWAP4 POP PUSH2 0xFF6 DUP2 DUP6 PUSH1 0x20 DUP7 ADD PUSH2 0xC85 JUMP JUMPDEST PUSH2 0xFFF DUP2 PUSH2 0xCAF JUMP JUMPDEST DUP5 ADD SWAP2 POP POP SWAP3 SWAP2 POP POP JUMP JUMPDEST PUSH1 0x0 PUSH1 0x40 DUP4 ADD PUSH1 0x0 DUP4 ADD MLOAD PUSH2 0x1022 PUSH1 0x0 DUP7 ADD DUP3 PUSH2 0xB1B JUMP JUMPDEST POP PUSH1 0x20 DUP4 ADD MLOAD DUP5 DUP3 SUB PUSH1 0x20 DUP7 ADD MSTORE PUSH2 0x103A DUP3 DUP3 PUSH2 0xFD1 JUMP JUMPDEST SWAP2 POP POP DUP1 SWAP2 POP POP SWAP3 SWAP2 POP POP JUMP JUMPDEST PUSH1 0x0 PUSH1 0x20 DUP3 ADD SWAP1 POP DUP2 DUP2 SUB PUSH1 0x0 DUP4 ADD MSTORE PUSH2 0x1061 DUP2 DUP5 PUSH2 0x100A JUMP JUMPDEST SWAP1 POP SWAP3 SWAP2 POP POP JUMP JUMPDEST PUSH32 0x4E487B7100000000000000000000000000000000000000000000000000000000 PUSH1 0x0 MSTORE PUSH1 0x22 PUSH1 0x4 MSTORE PUSH1 0x24 PUSH1 0x0 REVERT JUMPDEST PUSH1 0x0 PUSH1 0x2 DUP3 DIV SWAP1 POP PUSH1 0x1 DUP3 AND DUP1 PUSH2 0x10B0 JUMPI PUSH1 0x7F DUP3 AND SWAP2 POP JUMPDEST PUSH1 0x20 DUP3 LT DUP2 SUB PUSH2 0x10C3 JUMPI PUSH2 0x10C2 PUSH2 0x1069 JUMP JUMPDEST JUMPDEST POP SWAP2 SWAP1 POP JUMP JUMPDEST PUSH1 0x0 DUP2 SWAP1 POP DUP2 PUSH1 0x0 MSTORE PUSH1 0x20 PUSH1 0x0 KECCAK256 SWAP1 POP SWAP2 SWAP1 POP JUMP JUMPDEST PUSH1 0x0 PUSH1 0x20 PUSH1 0x1F DUP4 ADD DIV SWAP1 POP SWAP2 SWAP1 POP JUMP JUMPDEST PUSH1 0x0 DUP3 DUP3 SHL SWAP1 POP SWAP3 SWAP2 POP POP JUMP JUMPDEST PUSH1 0x0 PUSH1 0x8 DUP4 MUL PUSH2 0x112B PUSH32 0xFFFFFFFFFFFFFFFFFFFFFFFFFFFFFFFFFFFFFFFFFFFFFFFFFFFFFFFFFFFFFFFF DUP3 PUSH2 0x10EE JUMP JUMPDEST PUSH2 0x1135 DUP7 DUP4 PUSH2 0x10EE JUMP JUMPDEST SWAP6 POP DUP1 NOT DUP5 AND SWAP4 POP DUP1 DUP7 AND DUP5 OR SWAP3 POP POP POP SWAP4 SWAP3 POP POP POP JUMP JUMPDEST PUSH1 0x0 DUP2 SWAP1 POP SWAP2 SWAP1 POP JUMP JUMPDEST PUSH1 0x0 PUSH2 0x1172 PUSH2 0x116D PUSH2 0x1168 DUP5 PUSH2 0xB11 JUMP JUMPDEST PUSH2 0x114D JUMP JUMPDEST PUSH2 0xB11 JUMP JUMPDEST SWAP1 POP SWAP2 SWAP1 POP JUMP JUMPDEST PUSH1 0x0 DUP2 SWAP1 POP SWAP2 SWAP1 POP JUMP JUMPDEST PUSH2 0x118C DUP4 PUSH2 0x1157 JUMP JUMPDEST PUSH2 0x11A0 PUSH2 0x1198 DUP3 PUSH2 0x1179 JUMP JUMPDEST DUP5 DUP5 SLOAD PUSH2 0x10FB JUMP JUMPDEST DUP3 SSTORE POP POP POP POP JUMP JUMPDEST PUSH1 0x0 SWAP1 JUMP JUMPDEST PUSH2 0x11B5 PUSH2 0x11A8 JUMP JUMPDEST PUSH2 0x11C0 DUP2 DUP5 DUP5 PUSH2 0x1183 JUMP JUMPDEST POP POP POP JUMP JUMPDEST JUMPDEST DUP2 DUP2 LT ISZERO PUSH2 0x11E4 JUMPI PUSH2 0x11D9 PUSH1 0x0 DUP3 PUSH2 0x11AD JUMP JUMPDEST PUSH1 0x1 DUP2 ADD SWAP1 POP PUSH2 0x11C6 JUMP JUMPDEST POP POP JUMP JUMPDEST PUSH1 0x1F DUP3 GT ISZERO PUSH2 0x1229 JUMPI PUSH2 0x11FA DUP2 PUSH2 0x10C9 JUMP JUMPDEST PUSH2 0x1203 DUP5 PUSH2 0x10DE JUMP JUMPDEST DUP2 ADD PUSH1 0x20 DUP6 LT ISZERO PUSH2 0x1212 JUMPI DUP2 SWAP1 POP JUMPDEST PUSH2 0x1226 PUSH2 0x121E DUP6 PUSH2 0x10DE JUMP JUMPDEST DUP4 ADD DUP3 PUSH2 0x11C5 JUMP JUMPDEST POP POP JUMPDEST POP POP POP JUMP JUMPDEST PUSH1 0x0 DUP3 DUP3 SHR SWAP1 POP SWAP3 SWAP2 POP POP JUMP JUMPDEST PUSH1 0x0 PUSH2 0x124C PUSH1 0x0 NOT DUP5 PUSH1 0x8 MUL PUSH2 0x122E JUMP JUMPDEST NOT DUP1 DUP4 AND SWAP2 POP POP SWAP3 SWAP2 POP POP JUMP JUMPDEST PUSH1 0x0 PUSH2 0x1265 DUP4 DUP4 PUSH2 0x123B JUMP JUMPDEST SWAP2 POP DUP3 PUSH1 0x2 MUL DUP3 OR SWAP1 POP SWAP3 SWAP2 POP POP JUMP JUMPDEST PUSH2 0x127E DUP3 PUSH2 0xC69 JUMP JUMPDEST PUSH8 0xFFFFFFFFFFFFFFFF DUP2 GT ISZERO PUSH2 0x1297 JUMPI PUSH2 0x1296 PUSH2 0xD29 JUMP JUMPDEST JUMPDEST PUSH2 0x12A1 DUP3 SLOAD PUSH2 0x1098 JUMP JUMPDEST PUSH2 0x12AC DUP3 DUP3 DUP6 PUSH2 0x11E8 JUMP JUMPDEST PUSH1 0x0 PUSH1 0x20 SWAP1 POP PUSH1 0x1F DUP4 GT PUSH1 0x1 DUP2 EQ PUSH2 0x12DF JUMPI PUSH1 0x0 DUP5 ISZERO PUSH2 0x12CD JUMPI DUP3 DUP8 ADD MLOAD SWAP1 POP JUMPDEST PUSH2 0x12D7 DUP6 DUP3 PUSH2 0x1259 JUMP JUMPDEST DUP7 SSTORE POP PUSH2 0x133F JUMP JUMPDEST PUSH1 0x1F NOT DUP5 AND PUSH2 0x12ED DUP7 PUSH2 0x10C9 JUMP JUMPDEST PUSH1 0x0 JUMPDEST DUP3 DUP2 LT ISZERO PUSH2 0x1315 JUMPI DUP5 DUP10 ADD MLOAD DUP3 SSTORE PUSH1 0x1 DUP3 ADD SWAP2 POP PUSH1 0x20 DUP6 ADD SWAP5 POP PUSH1 0x20 DUP2 ADD SWAP1 POP PUSH2 0x12F0 JUMP JUMPDEST DUP7 DUP4 LT ISZERO PUSH2 0x1332 JUMPI DUP5 DUP10 ADD MLOAD PUSH2 0x132E PUSH1 0x1F DUP10 AND DUP3 PUSH2 0x123B JUMP JUMPDEST DUP4 SSTORE POP JUMPDEST PUSH1 0x1 PUSH1 0x2 DUP9 MUL ADD DUP9 SSTORE POP POP POP JUMPDEST POP POP POP POP POP POP JUMP JUMPDEST PUSH32 0x4E487B7100000000000000000000000000000000000000000000000000000000 PUSH1 0x0 MSTORE PUSH1 0x32 PUSH1 0x4 MSTORE PUSH1 0x24 PUSH1 0x0 REVERT INVALID LOG2 PUSH5 0x6970667358 0x22 SLT KECCAK256 0xCF 0x22 DUP9 0xAF 0x2B 0xC7 DUP11 ADDRESS 0xCB PUSH4 0x2D9AEF9F 0x4A 0x2D 0xFB 0xD3 0xD0 RETURN PUSH19 0xCB6880D953E012F3E54C7F64736F6C63430008 SGT STOP CALLER "
		},
		"gasEstimates": {
			"creation": {
				"codeDepositCost": "1007200",
				"executionCost": "1047",
				"totalCost": "1008247"
			},
			"external": {
				"examplesInputCallData(uint256[],string)": "infinite",
				"examplesReturnMemory(uint256[],string)": "infinite",
				"examplesReturnUintArray(uint256[],string)": "infinite",
				"myStructs(address)": "infinite"
			},
			"internal": {
				"_internal(uint256[] calldata)": "80"
			}
		},
		"methodIdentifiers": {
			"examplesInputCallData(uint256[],string)": "a1aeedbc",
			"examplesReturnMemory(uint256[],string)": "bfbd505d",
			"examplesReturnUintArray(uint256[],string)": "d63dbdc8",
			"myStructs(address)": "b43c5d33"
		}
	},
	"abi": [
		{
			"inputs": [
				{
					"internalType": "uint256[]",
					"name": "y",
					"type": "uint256[]"
				},
				{
					"internalType": "string",
					"name": "s",
					"type": "string"
				}
			],
			"name": "examplesInputCallData",
			"outputs": [
				{
					"internalType": "uint256[]",
					"name": "",
					"type": "uint256[]"
				}
			],
			"stateMutability": "nonpayable",
			"type": "function"
		},
		{
			"inputs": [
				{
					"internalType": "uint256[]",
					"name": "y",
					"type": "uint256[]"
				},
				{
					"internalType": "string",
					"name": "s",
					"type": "string"
				}
			],
			"name": "examplesReturnMemory",
			"outputs": [
				{
					"components": [
						{
							"internalType": "uint256",
							"name": "foo",
							"type": "uint256"
						},
						{
							"internalType": "string",
							"name": "text",
							"type": "string"
						}
					],
					"internalType": "struct DataLocations.MyStruct",
					"name": "",
					"type": "tuple"
				}
			],
			"stateMutability": "nonpayable",
			"type": "function"
		},
		{
			"inputs": [
				{
					"internalType": "uint256[]",
					"name": "y",
					"type": "uint256[]"
				},
				{
					"internalType": "string",
					"name": "s",
					"type": "string"
				}
			],
			"name": "examplesReturnUintArray",
			"outputs": [
				{
					"internalType": "uint256[]",
					"name": "",
					"type": "uint256[]"
				}
			],
			"stateMutability": "nonpayable",
			"type": "function"
		},
		{
			"inputs": [
				{
					"internalType": "address",
					"name": "",
					"type": "address"
				}
			],
			"name": "myStructs",
			"outputs": [
				{
					"internalType": "uint256",
					"name": "foo",
					"type": "uint256"
				},
				{
					"internalType": "string",
					"name": "text",
					"type": "string"
				}
			],
			"stateMutability": "view",
			"type": "function"
		}
	]
}