{
	"data": {
		"bytecode": {
			"linkReferences": {},
			"object": "608060405234801561001057600080fd5b50610197806100206000396000f3fe608060405234801561001057600080fd5b506004361061004c5760003560e01c806345f907a8146100515780638688754414610070578063adb4d9901461008f578063b4ce3f3a146100ae575b600080fd5b6100596100b8565b604051610067929190610138565b60405180910390f35b6100786100c6565b604051610086929190610138565b60405180910390f35b6100976100d4565b6040516100a5929190610138565b60405180910390f35b6100b66100e3565b005b600080600180915091509091565b600080600180915091509091565b60008060019150600190509091565b6000806100ee6100c6565b9150915060006100fc6100c6565b915050505050565b6000819050919050565b61011781610104565b82525050565b60008115159050919050565b6101328161011d565b82525050565b600060408201905061014d600083018561010e565b61015a6020830184610129565b939250505056fea264697066735822122073485b0148a0a6db2d96047fe68aca178694d6519765fc74b2d8271e8d8b23da64736f6c63430008130033",
			"opcodes": "PUSH1 0x80 PUSH1 0x40 MSTORE CALLVALUE DUP1 ISZERO PUSH2 0x10 JUMPI PUSH1 0x0 DUP1 REVERT JUMPDEST POP PUSH2 0x197 DUP1 PUSH2 0x20 PUSH1 0x0 CODECOPY PUSH1 0x0 RETURN INVALID PUSH1 0x80 PUSH1 0x40 MSTORE CALLVALUE DUP1 ISZERO PUSH2 0x10 JUMPI PUSH1 0x0 DUP1 REVERT JUMPDEST POP PUSH1 0x4 CALLDATASIZE LT PUSH2 0x4C JUMPI PUSH1 0x0 CALLDATALOAD PUSH1 0xE0 SHR DUP1 PUSH4 0x45F907A8 EQ PUSH2 0x51 JUMPI DUP1 PUSH4 0x86887544 EQ PUSH2 0x70 JUMPI DUP1 PUSH4 0xADB4D990 EQ PUSH2 0x8F JUMPI DUP1 PUSH4 0xB4CE3F3A EQ PUSH2 0xAE JUMPI JUMPDEST PUSH1 0x0 DUP1 REVERT JUMPDEST PUSH2 0x59 PUSH2 0xB8 JUMP JUMPDEST PUSH1 0x40 MLOAD PUSH2 0x67 SWAP3 SWAP2 SWAP1 PUSH2 0x138 JUMP JUMPDEST PUSH1 0x40 MLOAD DUP1 SWAP2 SUB SWAP1 RETURN JUMPDEST PUSH2 0x78 PUSH2 0xC6 JUMP JUMPDEST PUSH1 0x40 MLOAD PUSH2 0x86 SWAP3 SWAP2 SWAP1 PUSH2 0x138 JUMP JUMPDEST PUSH1 0x40 MLOAD DUP1 SWAP2 SUB SWAP1 RETURN JUMPDEST PUSH2 0x97 PUSH2 0xD4 JUMP JUMPDEST PUSH1 0x40 MLOAD PUSH2 0xA5 SWAP3 SWAP2 SWAP1 PUSH2 0x138 JUMP JUMPDEST PUSH1 0x40 MLOAD DUP1 SWAP2 SUB SWAP1 RETURN JUMPDEST PUSH2 0xB6 PUSH2 0xE3 JUMP JUMPDEST STOP JUMPDEST PUSH1 0x0 DUP1 PUSH1 0x1 DUP1 SWAP2 POP SWAP2 POP SWAP1 SWAP2 JUMP JUMPDEST PUSH1 0x0 DUP1 PUSH1 0x1 DUP1 SWAP2 POP SWAP2 POP SWAP1 SWAP2 JUMP JUMPDEST PUSH1 0x0 DUP1 PUSH1 0x1 SWAP2 POP PUSH1 0x1 SWAP1 POP SWAP1 SWAP2 JUMP JUMPDEST PUSH1 0x0 DUP1 PUSH2 0xEE PUSH2 0xC6 JUMP JUMPDEST SWAP2 POP SWAP2 POP PUSH1 0x0 PUSH2 0xFC PUSH2 0xC6 JUMP JUMPDEST SWAP2 POP POP POP POP POP JUMP JUMPDEST PUSH1 0x0 DUP2 SWAP1 POP SWAP2 SWAP1 POP JUMP JUMPDEST PUSH2 0x117 DUP2 PUSH2 0x104 JUMP JUMPDEST DUP3 MSTORE POP POP JUMP JUMPDEST PUSH1 0x0 DUP2 ISZERO ISZERO SWAP1 POP SWAP2 SWAP1 POP JUMP JUMPDEST PUSH2 0x132 DUP2 PUSH2 0x11D JUMP JUMPDEST DUP3 MSTORE POP POP JUMP JUMPDEST PUSH1 0x0 PUSH1 0x40 DUP3 ADD SWAP1 POP PUSH2 0x14D PUSH1 0x0 DUP4 ADD DUP6 PUSH2 0x10E JUMP JUMPDEST PUSH2 0x15A PUSH1 0x20 DUP4 ADD DUP5 PUSH2 0x129 JUMP JUMPDEST SWAP4 SWAP3 POP POP POP JUMP INVALID LOG2 PUSH5 0x6970667358 0x22 SLT KECCAK256 PUSH20 0x485B0148A0A6DB2D96047FE68ACA178694D65197 PUSH6 0xFC74B2D8271E DUP14 DUP12 0x23 0xDA PUSH5 0x736F6C6343 STOP ADDMOD SGT STOP CALLER "
		},
		"gasEstimates": {
			"creation": {
				"codeDepositCost": "81400",
				"executionCost": "129",
				"totalCost": "81529"
			},
			"external": {
				"assigned()": "479",
				"desturctingAssigments()": "infinite",
				"named()": "435",
				"returnMany()": "457"
			}
		},
		"methodIdentifiers": {
			"assigned()": "adb4d990",
			"desturctingAssigments()": "b4ce3f3a",
			"named()": "45f907a8",
			"returnMany()": "86887544"
		}
	},
	"abi": [
		{
			"inputs": [],
			"name": "assigned",
			"outputs": [
				{
					"internalType": "uint256",
					"name": "x",
					"type": "uint256"
				},
				{
					"internalType": "bool",
					"name": "b",
					"type": "bool"
				}
			],
			"stateMutability": "pure",
			"type": "function"
		},
		{
			"inputs": [],
			"name": "desturctingAssigments",
			"outputs": [],
			"stateMutability": "pure",
			"type": "function"
		},
		{
			"inputs": [],
			"name": "named",
			"outputs": [
				{
					"internalType": "uint256",
					"name": "x",
					"type": "uint256"
				},
				{
					"internalType": "bool",
					"name": "b",
					"type": "bool"
				}
			],
			"stateMutability": "pure",
			"type": "function"
		},
		{
			"inputs": [],
			"name": "returnMany",
			"outputs": [
				{
					"internalType": "uint256",
					"name": "",
					"type": "uint256"
				},
				{
					"internalType": "bool",
					"name": "",
					"type": "bool"
				}
			],
			"stateMutability": "pure",
			"type": "function"
		}
	]
}